{
  "contractName": "ticketsToken",
  "abi": [
    {
      "constant": true,
      "inputs": [
        {
          "name": "_interfaceId",
          "type": "bytes4"
        }
      ],
      "name": "supportsInterface",
      "outputs": [
        {
          "name": "",
          "type": "bool"
        }
      ],
      "payable": false,
      "stateMutability": "view",
      "type": "function"
    },
    {
      "constant": true,
      "inputs": [],
      "name": "name",
      "outputs": [
        {
          "name": "",
          "type": "string"
        }
      ],
      "payable": false,
      "stateMutability": "view",
      "type": "function"
    },
    {
      "constant": true,
      "inputs": [
        {
          "name": "_tokenId",
          "type": "uint256"
        }
      ],
      "name": "getApproved",
      "outputs": [
        {
          "name": "",
          "type": "address"
        }
      ],
      "payable": false,
      "stateMutability": "view",
      "type": "function"
    },
    {
      "constant": false,
      "inputs": [
        {
          "name": "_to",
          "type": "address"
        },
        {
          "name": "_tokenId",
          "type": "uint256"
        }
      ],
      "name": "approve",
      "outputs": [],
      "payable": false,
      "stateMutability": "nonpayable",
      "type": "function"
    },
    {
      "constant": true,
      "inputs": [],
      "name": "totalSupply",
      "outputs": [
        {
          "name": "",
          "type": "uint256"
        }
      ],
      "payable": false,
      "stateMutability": "view",
      "type": "function"
    },
    {
      "constant": true,
      "inputs": [],
      "name": "InterfaceId_ERC165",
      "outputs": [
        {
          "name": "",
          "type": "bytes4"
        }
      ],
      "payable": false,
      "stateMutability": "view",
      "type": "function"
    },
    {
      "constant": false,
      "inputs": [
        {
          "name": "_from",
          "type": "address"
        },
        {
          "name": "_to",
          "type": "address"
        },
        {
          "name": "_tokenId",
          "type": "uint256"
        }
      ],
      "name": "transferFrom",
      "outputs": [],
      "payable": false,
      "stateMutability": "nonpayable",
      "type": "function"
    },
    {
      "constant": true,
      "inputs": [
        {
          "name": "_owner",
          "type": "address"
        },
        {
          "name": "_index",
          "type": "uint256"
        }
      ],
      "name": "tokenOfOwnerByIndex",
      "outputs": [
        {
          "name": "",
          "type": "uint256"
        }
      ],
      "payable": false,
      "stateMutability": "view",
      "type": "function"
    },
    {
      "constant": false,
      "inputs": [
        {
          "name": "_from",
          "type": "address"
        },
        {
          "name": "_to",
          "type": "address"
        },
        {
          "name": "_tokenId",
          "type": "uint256"
        }
      ],
      "name": "safeTransferFrom",
      "outputs": [],
      "payable": false,
      "stateMutability": "nonpayable",
      "type": "function"
    },
    {
      "constant": true,
      "inputs": [
        {
          "name": "_tokenId",
          "type": "uint256"
        }
      ],
      "name": "exists",
      "outputs": [
        {
          "name": "",
          "type": "bool"
        }
      ],
      "payable": false,
      "stateMutability": "view",
      "type": "function"
    },
    {
      "constant": true,
      "inputs": [
        {
          "name": "_index",
          "type": "uint256"
        }
      ],
      "name": "tokenByIndex",
      "outputs": [
        {
          "name": "",
          "type": "uint256"
        }
      ],
      "payable": false,
      "stateMutability": "view",
      "type": "function"
    },
    {
      "constant": true,
      "inputs": [
        {
          "name": "_tokenId",
          "type": "uint256"
        }
      ],
      "name": "ownerOf",
      "outputs": [
        {
          "name": "",
          "type": "address"
        }
      ],
      "payable": false,
      "stateMutability": "view",
      "type": "function"
    },
    {
      "constant": true,
      "inputs": [
        {
          "name": "_owner",
          "type": "address"
        }
      ],
      "name": "balanceOf",
      "outputs": [
        {
          "name": "",
          "type": "uint256"
        }
      ],
      "payable": false,
      "stateMutability": "view",
      "type": "function"
    },
    {
      "constant": false,
      "inputs": [],
      "name": "renounceOwnership",
      "outputs": [],
      "payable": false,
      "stateMutability": "nonpayable",
      "type": "function"
    },
    {
      "constant": true,
      "inputs": [],
      "name": "owner",
      "outputs": [
        {
          "name": "",
          "type": "address"
        }
      ],
      "payable": false,
      "stateMutability": "view",
      "type": "function"
    },
    {
      "constant": true,
      "inputs": [],
      "name": "symbol",
      "outputs": [
        {
          "name": "",
          "type": "string"
        }
      ],
      "payable": false,
      "stateMutability": "view",
      "type": "function"
    },
    {
      "constant": false,
      "inputs": [
        {
          "name": "_to",
          "type": "address"
        },
        {
          "name": "_approved",
          "type": "bool"
        }
      ],
      "name": "setApprovalForAll",
      "outputs": [],
      "payable": false,
      "stateMutability": "nonpayable",
      "type": "function"
    },
    {
      "constant": false,
      "inputs": [
        {
          "name": "_from",
          "type": "address"
        },
        {
          "name": "_to",
          "type": "address"
        },
        {
          "name": "_tokenId",
          "type": "uint256"
        },
        {
          "name": "_data",
          "type": "bytes"
        }
      ],
      "name": "safeTransferFrom",
      "outputs": [],
      "payable": false,
      "stateMutability": "nonpayable",
      "type": "function"
    },
    {
      "constant": true,
      "inputs": [
        {
          "name": "_tokenId",
          "type": "uint256"
        }
      ],
      "name": "tokenURI",
      "outputs": [
        {
          "name": "",
          "type": "string"
        }
      ],
      "payable": false,
      "stateMutability": "view",
      "type": "function"
    },
    {
      "constant": true,
      "inputs": [
        {
          "name": "_owner",
          "type": "address"
        },
        {
          "name": "_operator",
          "type": "address"
        }
      ],
      "name": "isApprovedForAll",
      "outputs": [
        {
          "name": "",
          "type": "bool"
        }
      ],
      "payable": false,
      "stateMutability": "view",
      "type": "function"
    },
    {
      "constant": false,
      "inputs": [
        {
          "name": "_newOwner",
          "type": "address"
        }
      ],
      "name": "transferOwnership",
      "outputs": [],
      "payable": false,
      "stateMutability": "nonpayable",
      "type": "function"
    },
    {
      "inputs": [
        {
          "name": "_name",
          "type": "string"
        },
        {
          "name": "_symbol",
          "type": "string"
        },
        {
          "name": "_caps",
          "type": "uint256[]"
        },
        {
          "name": "_rates",
          "type": "uint256[]"
        },
        {
          "name": "_maxPerSale",
          "type": "uint8"
        }
      ],
      "payable": false,
      "stateMutability": "nonpayable",
      "type": "constructor"
    },
    {
      "anonymous": false,
      "inputs": [
        {
          "indexed": false,
          "name": "quantity",
          "type": "uint256"
        },
        {
          "indexed": false,
          "name": "tokenType",
          "type": "uint256"
        },
        {
          "indexed": true,
          "name": "owner",
          "type": "address"
        }
      ],
      "name": "saleTokenSuccess",
      "type": "event"
    },
    {
      "anonymous": false,
      "inputs": [
        {
          "indexed": false,
          "name": "quantity",
          "type": "uint256"
        },
        {
          "indexed": false,
          "name": "tokenType",
          "type": "uint256"
        },
        {
          "indexed": false,
          "name": "owner",
          "type": "address"
        }
      ],
      "name": "courtesyTokenSuccess",
      "type": "event"
    },
    {
      "anonymous": false,
      "inputs": [
        {
          "indexed": true,
          "name": "previousOwner",
          "type": "address"
        }
      ],
      "name": "OwnershipRenounced",
      "type": "event"
    },
    {
      "anonymous": false,
      "inputs": [
        {
          "indexed": true,
          "name": "previousOwner",
          "type": "address"
        },
        {
          "indexed": true,
          "name": "newOwner",
          "type": "address"
        }
      ],
      "name": "OwnershipTransferred",
      "type": "event"
    },
    {
      "anonymous": false,
      "inputs": [
        {
          "indexed": true,
          "name": "_from",
          "type": "address"
        },
        {
          "indexed": true,
          "name": "_to",
          "type": "address"
        },
        {
          "indexed": true,
          "name": "_tokenId",
          "type": "uint256"
        }
      ],
      "name": "Transfer",
      "type": "event"
    },
    {
      "anonymous": false,
      "inputs": [
        {
          "indexed": true,
          "name": "_owner",
          "type": "address"
        },
        {
          "indexed": true,
          "name": "_approved",
          "type": "address"
        },
        {
          "indexed": true,
          "name": "_tokenId",
          "type": "uint256"
        }
      ],
      "name": "Approval",
      "type": "event"
    },
    {
      "anonymous": false,
      "inputs": [
        {
          "indexed": true,
          "name": "_owner",
          "type": "address"
        },
        {
          "indexed": true,
          "name": "_operator",
          "type": "address"
        },
        {
          "indexed": false,
          "name": "_approved",
          "type": "bool"
        }
      ],
      "name": "ApprovalForAll",
      "type": "event"
    },
    {
      "constant": false,
      "inputs": [
        {
          "name": "_tokenType",
          "type": "uint256"
        },
        {
          "name": "_quantity",
          "type": "uint256"
        }
      ],
      "name": "saleToken",
      "outputs": [],
      "payable": true,
      "stateMutability": "payable",
      "type": "function"
    },
    {
      "constant": false,
      "inputs": [
        {
          "name": "_tokenType",
          "type": "uint256"
        },
        {
          "name": "_quantity",
          "type": "uint256"
        },
        {
          "name": "_to",
          "type": "address"
        }
      ],
      "name": "courtesyToken",
      "outputs": [],
      "payable": false,
      "stateMutability": "nonpayable",
      "type": "function"
    },
    {
      "constant": true,
      "inputs": [
        {
          "name": "_tokenType",
          "type": "uint256"
        }
      ],
      "name": "checkRates",
      "outputs": [
        {
          "name": "",
          "type": "uint256"
        }
      ],
      "payable": false,
      "stateMutability": "view",
      "type": "function"
    },
    {
      "constant": true,
      "inputs": [],
      "name": "checkMaxPerSale",
      "outputs": [
        {
          "name": "",
          "type": "uint8"
        }
      ],
      "payable": false,
      "stateMutability": "view",
      "type": "function"
    },
    {
      "constant": true,
      "inputs": [],
      "name": "checkMaxTokenTypes",
      "outputs": [
        {
          "name": "",
          "type": "uint256"
        }
      ],
      "payable": false,
      "stateMutability": "view",
      "type": "function"
    },
    {
      "constant": true,
      "inputs": [
        {
          "name": "_tokenId",
          "type": "uint256"
        }
      ],
      "name": "checkTokenType",
      "outputs": [
        {
          "name": "",
          "type": "uint256"
        }
      ],
      "payable": false,
      "stateMutability": "view",
      "type": "function"
    },
    {
      "constant": true,
      "inputs": [
        {
          "name": "_address",
          "type": "address"
        }
      ],
      "name": "checkOwnedTokens",
      "outputs": [
        {
          "name": "",
          "type": "uint256[]"
        }
      ],
      "payable": false,
      "stateMutability": "view",
      "type": "function"
    },
    {
      "constant": true,
      "inputs": [
        {
          "name": "_tokenType",
          "type": "uint256"
        }
      ],
      "name": "checkCaps",
      "outputs": [
        {
          "name": "",
          "type": "uint256"
        }
      ],
      "payable": false,
      "stateMutability": "view",
      "type": "function"
    },
    {
      "constant": true,
      "inputs": [
        {
          "name": "_tokenType",
          "type": "uint256"
        }
      ],
      "name": "checkMinted",
      "outputs": [
        {
          "name": "",
          "type": "uint256"
        }
      ],
      "payable": false,
      "stateMutability": "view",
      "type": "function"
    }
  ],
  "bytecode": "0x60806040523480156200001157600080fd5b50604051620031b9380380620031b9833981018060405281019080805182019291906020018051820192919060200180518201929190602001805182019291906020018051906020019092919050505060008585620000a26301ffc9a77c01000000000000000000000000000000000000000000000000000000000262000476640100000000026401000000009004565b620000df6380ac58cd7c01000000000000000000000000000000000000000000000000000000000262000476640100000000026401000000009004565b6200011c634f558e797c01000000000000000000000000000000000000000000000000000000000262000476640100000000026401000000009004565b81600590805190602001906200013492919062000534565b5080600690805190602001906200014d92919062000534565b506200018b63780e9d637c01000000000000000000000000000000000000000000000000000000000262000476640100000000026401000000009004565b620001c8635b5e139f7c01000000000000000000000000000000000000000000000000000000000262000476640100000000026401000000009004565b505033600c60006101000a81548173ffffffffffffffffffffffffffffffffffffffff021916908373ffffffffffffffffffffffffffffffffffffffff1602179055508251845114151562000285576040517f08c379a00000000000000000000000000000000000000000000000000000000081526004018080602001828103825260168152602001807f696e76616c69644361707352617465734c656e6774680000000000000000000081525060200191505060405180910390fd5b60008260ff1611151562000301576040517f08c379a00000000000000000000000000000000000000000000000000000000081526004018080602001828103825260118152602001807f696e76616c69644d617850657253616c6500000000000000000000000000000081525060200191505060405180910390fd5b600090505b8351811015620003d457600084828151811015156200032157fe5b90602001906020020151118015620003515750600083828151811015156200034557fe5b90602001906020020151115b1515620003c6576040517f08c379a000000000000000000000000000000000000000000000000000000000815260040180806020018281038252600e8152602001807f696e76616c69644361705261746500000000000000000000000000000000000081525060200191505060405180910390fd5b808060010191505062000306565b8351600e8190555083600f9080519060200190620003f4929190620005bb565b5082601090805190602001906200040d929190620005bb565b5081600d60146101000a81548160ff021916908360ff16021790555033600d60006101000a81548173ffffffffffffffffffffffffffffffffffffffff021916908373ffffffffffffffffffffffffffffffffffffffff16021790555050505050505062000635565b63ffffffff7c010000000000000000000000000000000000000000000000000000000002817bffffffffffffffffffffffffffffffffffffffffffffffffffffffff191614151515620004c857600080fd5b6001600080837bffffffffffffffffffffffffffffffffffffffffffffffffffffffff19167bffffffffffffffffffffffffffffffffffffffffffffffffffffffff1916815260200190815260200160002060006101000a81548160ff02191690831515021790555050565b828054600181600116156101000203166002900490600052602060002090601f016020900481019282601f106200057757805160ff1916838001178555620005a8565b82800160010185558215620005a8579182015b82811115620005a75782518255916020019190600101906200058a565b5b509050620005b791906200060d565b5090565b828054828255906000526020600020908101928215620005fa579160200282015b82811115620005f9578251825591602001919060010190620005dc565b5b5090506200060991906200060d565b5090565b6200063291905b808211156200062e57600081600090555060010162000614565b5090565b90565b612b7480620006456000396000f300608060405260043610610180576000357c0100000000000000000000000000000000000000000000000000000000900463ffffffff16806301ffc9a71461018557806306fdde03146101e9578063081812fc14610279578063095ea7b3146102e657806318160ddd1461033357806319fa8f501461035e57806323b872dd146103c75780632f745c591461043457806339241f271461049557806342842e0e1461052d5780634f558e791461059a5780634f6ccce7146105df578063512f3d98146106205780636352211e1461064b57806363724ac4146106b857806370a08231146106f9578063715018a6146107505780638da5cb5b1461076757806395d89b41146107be578063a22cb4651461084e578063b88d4fde1461089d578063c21ed6a614610950578063c87b56dd14610991578063d6f09f9e14610a37578063d742311214610a61578063e4bc6b2814610aa2578063e985e9c514610ad3578063ea500d3d14610b4e578063eb7604af14610ba5578063f2fde38b14610be6575b600080fd5b34801561019157600080fd5b506101cf60048036038101908080357bffffffffffffffffffffffffffffffffffffffffffffffffffffffff19169060200190929190505050610c29565b604051808215151515815260200191505060405180910390f35b3480156101f557600080fd5b506101fe610c90565b6040518080602001828103825283818151815260200191508051906020019080838360005b8381101561023e578082015181840152602081019050610223565b50505050905090810190601f16801561026b5780820380516001836020036101000a031916815260200191505b509250505060405180910390f35b34801561028557600080fd5b506102a460048036038101908080359060200190929190505050610d32565b604051808273ffffffffffffffffffffffffffffffffffffffff1673ffffffffffffffffffffffffffffffffffffffff16815260200191505060405180910390f35b3480156102f257600080fd5b50610331600480360381019080803573ffffffffffffffffffffffffffffffffffffffff16906020019092919080359060200190929190505050610d6f565b005b34801561033f57600080fd5b50610348610eb4565b6040518082815260200191505060405180910390f35b34801561036a57600080fd5b50610373610ec1565b60405180827bffffffffffffffffffffffffffffffffffffffffffffffffffffffff19167bffffffffffffffffffffffffffffffffffffffffffffffffffffffff1916815260200191505060405180910390f35b3480156103d357600080fd5b50610432600480360381019080803573ffffffffffffffffffffffffffffffffffffffff169060200190929190803573ffffffffffffffffffffffffffffffffffffffff16906020019092919080359060200190929190505050610ee8565b005b34801561044057600080fd5b5061047f600480360381019080803573ffffffffffffffffffffffffffffffffffffffff16906020019092919080359060200190929190505050610ff3565b6040518082815260200191505060405180910390f35b3480156104a157600080fd5b506104d6600480360381019080803573ffffffffffffffffffffffffffffffffffffffff16906020019092919050505061106a565b6040518080602001828103825283818151815260200191508051906020019060200280838360005b838110156105195780820151818401526020810190506104fe565b505050509050019250505060405180910390f35b34801561053957600080fd5b50610598600480360381019080803573ffffffffffffffffffffffffffffffffffffffff169060200190929190803573ffffffffffffffffffffffffffffffffffffffff16906020019092919080359060200190929190505050611101565b005b3480156105a657600080fd5b506105c560048036038101908080359060200190929190505050611122565b604051808215151515815260200191505060405180910390f35b3480156105eb57600080fd5b5061060a60048036038101908080359060200190929190505050611194565b6040518082815260200191505060405180910390f35b34801561062c57600080fd5b506106356111cc565b6040518082815260200191505060405180910390f35b34801561065757600080fd5b50610676600480360381019080803590602001909291905050506111d6565b604051808273ffffffffffffffffffffffffffffffffffffffff1673ffffffffffffffffffffffffffffffffffffffff16815260200191505060405180910390f35b3480156106c457600080fd5b506106e360048036038101908080359060200190929190505050611254565b6040518082815260200191505060405180910390f35b34801561070557600080fd5b5061073a600480360381019080803573ffffffffffffffffffffffffffffffffffffffff169060200190929190505050611277565b6040518082815260200191505060405180910390f35b34801561075c57600080fd5b506107656112fb565b005b34801561077357600080fd5b5061077c611400565b604051808273ffffffffffffffffffffffffffffffffffffffff1673ffffffffffffffffffffffffffffffffffffffff16815260200191505060405180910390f35b3480156107ca57600080fd5b506107d3611426565b6040518080602001828103825283818151815260200191508051906020019080838360005b838110156108135780820151818401526020810190506107f8565b50505050905090810190601f1680156108405780820380516001836020036101000a031916815260200191505b509250505060405180910390f35b34801561085a57600080fd5b5061089b600480360381019080803573ffffffffffffffffffffffffffffffffffffffff1690602001909291908035151590602001909291905050506114c8565b005b3480156108a957600080fd5b5061094e600480360381019080803573ffffffffffffffffffffffffffffffffffffffff169060200190929190803573ffffffffffffffffffffffffffffffffffffffff16906020019092919080359060200190929190803590602001908201803590602001908080601f0160208091040260200160405190810160405280939291908181526020018383808284378201915050505050509192919290505050611604565b005b34801561095c57600080fd5b5061097b6004803603810190808035906020019092919050505061162c565b6040518082815260200191505060405180910390f35b34801561099d57600080fd5b506109bc60048036038101908080359060200190929190505050611649565b6040518080602001828103825283818151815260200191508051906020019080838360005b838110156109fc5780820151818401526020810190506109e1565b50505050905090810190601f168015610a295780820380516001836020036101000a031916815260200191505b509250505060405180910390f35b610a5f6004803603810190808035906020019092919080359060200190929190505050611712565b005b348015610a6d57600080fd5b50610a8c60048036038101908080359060200190929190505050611a9d565b6040518082815260200191505060405180910390f35b348015610aae57600080fd5b50610ab7611ac0565b604051808260ff1660ff16815260200191505060405180910390f35b348015610adf57600080fd5b50610b34600480360381019080803573ffffffffffffffffffffffffffffffffffffffff169060200190929190803573ffffffffffffffffffffffffffffffffffffffff169060200190929190505050611ad7565b604051808215151515815260200191505060405180910390f35b348015610b5a57600080fd5b50610ba36004803603810190808035906020019092919080359060200190929190803573ffffffffffffffffffffffffffffffffffffffff169060200190929190505050611b6b565b005b348015610bb157600080fd5b50610bd060048036038101908080359060200190929190505050611e14565b6040518082815260200191505060405180910390f35b348015610bf257600080fd5b50610c27600480360381019080803573ffffffffffffffffffffffffffffffffffffffff169060200190929190505050611e31565b005b6000806000837bffffffffffffffffffffffffffffffffffffffffffffffffffffffff19167bffffffffffffffffffffffffffffffffffffffffffffffffffffffff1916815260200190815260200160002060009054906101000a900460ff169050919050565b606060058054600181600116156101000203166002900480601f016020809104026020016040519081016040528092919081815260200182805460018160011615610100020316600290048015610d285780601f10610cfd57610100808354040283529160200191610d28565b820191906000526020600020905b815481529060010190602001808311610d0b57829003601f168201915b5050505050905090565b60006002600083815260200190815260200160002060009054906101000a900473ffffffffffffffffffffffffffffffffffffffff169050919050565b6000610d7a826111d6565b90508073ffffffffffffffffffffffffffffffffffffffff168373ffffffffffffffffffffffffffffffffffffffff1614151515610db757600080fd5b8073ffffffffffffffffffffffffffffffffffffffff163373ffffffffffffffffffffffffffffffffffffffff161480610df75750610df68133611ad7565b5b1515610e0257600080fd5b826002600084815260200190815260200160002060006101000a81548173ffffffffffffffffffffffffffffffffffffffff021916908373ffffffffffffffffffffffffffffffffffffffff160217905550818373ffffffffffffffffffffffffffffffffffffffff168273ffffffffffffffffffffffffffffffffffffffff167f8c5be1e5ebec7d5bd14f71427d1e84f3dd0314c0f7b2291e5b200ac8c7c3b92560405160405180910390a4505050565b6000600980549050905090565b6301ffc9a77c01000000000000000000000000000000000000000000000000000000000281565b610ef23382611e99565b1515610efd57600080fd5b600073ffffffffffffffffffffffffffffffffffffffff168373ffffffffffffffffffffffffffffffffffffffff1614151515610f3957600080fd5b600073ffffffffffffffffffffffffffffffffffffffff168273ffffffffffffffffffffffffffffffffffffffff1614151515610f7557600080fd5b610f7f8382611f2e565b610f898382612031565b610f9382826121ed565b808273ffffffffffffffffffffffffffffffffffffffff168473ffffffffffffffffffffffffffffffffffffffff167fddf252ad1be2c89b69c2b068fc378daa952ba7f163c4a11628f55a4df523b3ef60405160405180910390a4505050565b6000610ffe83611277565b8210151561100b57600080fd5b600760008473ffffffffffffffffffffffffffffffffffffffff1673ffffffffffffffffffffffffffffffffffffffff1681526020019081526020016000208281548110151561105757fe5b9060005260206000200154905092915050565b6060600760008373ffffffffffffffffffffffffffffffffffffffff1673ffffffffffffffffffffffffffffffffffffffff1681526020019081526020016000208054806020026020016040519081016040528092919081815260200182805480156110f557602002820191906000526020600020905b8154815260200190600101908083116110e1575b50505050509050919050565b61111d8383836020604051908101604052806000815250611604565b505050565b6000806001600084815260200190815260200160002060009054906101000a900473ffffffffffffffffffffffffffffffffffffffff169050600073ffffffffffffffffffffffffffffffffffffffff168173ffffffffffffffffffffffffffffffffffffffff161415915050919050565b600061119e610eb4565b821015156111ab57600080fd5b6009828154811015156111ba57fe5b90600052602060002001549050919050565b6000600e54905090565b6000806001600084815260200190815260200160002060009054906101000a900473ffffffffffffffffffffffffffffffffffffffff169050600073ffffffffffffffffffffffffffffffffffffffff168173ffffffffffffffffffffffffffffffffffffffff161415151561124b57600080fd5b80915050919050565b6000600f8281548110151561126557fe5b90600052602060002001549050919050565b60008073ffffffffffffffffffffffffffffffffffffffff168273ffffffffffffffffffffffffffffffffffffffff16141515156112b457600080fd5b600360008373ffffffffffffffffffffffffffffffffffffffff1673ffffffffffffffffffffffffffffffffffffffff168152602001908152602001600020549050919050565b600c60009054906101000a900473ffffffffffffffffffffffffffffffffffffffff1673ffffffffffffffffffffffffffffffffffffffff163373ffffffffffffffffffffffffffffffffffffffff1614151561135757600080fd5b600c60009054906101000a900473ffffffffffffffffffffffffffffffffffffffff1673ffffffffffffffffffffffffffffffffffffffff167ff8df31144d9c2f0f6b59d69b8b98abd5459d07f2742c4df920b25aae33c6482060405160405180910390a26000600c60006101000a81548173ffffffffffffffffffffffffffffffffffffffff021916908373ffffffffffffffffffffffffffffffffffffffff160217905550565b600c60009054906101000a900473ffffffffffffffffffffffffffffffffffffffff1681565b606060068054600181600116156101000203166002900480601f0160208091040260200160405190810160405280929190818152602001828054600181600116156101000203166002900480156114be5780601f10611493576101008083540402835291602001916114be565b820191906000526020600020905b8154815290600101906020018083116114a157829003601f168201915b5050505050905090565b3373ffffffffffffffffffffffffffffffffffffffff168273ffffffffffffffffffffffffffffffffffffffff161415151561150357600080fd5b80600460003373ffffffffffffffffffffffffffffffffffffffff1673ffffffffffffffffffffffffffffffffffffffff16815260200190815260200160002060008473ffffffffffffffffffffffffffffffffffffffff1673ffffffffffffffffffffffffffffffffffffffff16815260200190815260200160002060006101000a81548160ff0219169083151502179055508173ffffffffffffffffffffffffffffffffffffffff163373ffffffffffffffffffffffffffffffffffffffff167f17307eab39ab6107e8899845ad3d59bd9653f200f220920489ca2b5937696c3183604051808215151515815260200191505060405180910390a35050565b61160f848484610ee8565b61161b848484846122c4565b151561162657600080fd5b50505050565b600060126000838152602001908152602001600020549050919050565b606061165482611122565b151561165f57600080fd5b600b60008381526020019081526020016000208054600181600116156101000203166002900480601f0160208091040260200160405190810160405280929190818152602001828054600181600116156101000203166002900480156117065780601f106116db57610100808354040283529160200191611706565b820191906000526020600020905b8154815290600101906020018083116116e957829003601f168201915b50505050509050919050565b600080600080600085111515611790576040517f08c379a000000000000000000000000000000000000000000000000000000000815260040180806020018281038252600f8152602001807f696e76616c69645175616e74697479000000000000000000000000000000000081525060200191505060405180910390fd5b600e5486101515611809576040517f08c379a00000000000000000000000000000000000000000000000000000000081526004018080602001828103825260108152602001807f696e76616c6964546f6b656e547970650000000000000000000000000000000081525060200191505060405180910390fd5b600d60149054906101000a900460ff1660ff168511151515611893576040517f08c379a000000000000000000000000000000000000000000000000000000000815260040180806020018281038252600f8152602001807f7175616e746974794f7665724d6178000000000000000000000000000000000081525060200191505060405180910390fd5b6118bf6010878154811015156118a557fe5b9060005260206000200154866124e690919063ffffffff16565b9350846011600088815260200190815260200160002054019250833410151515611951576040517f08c379a00000000000000000000000000000000000000000000000000000000081526004018080602001828103825260118152602001807f696e73756666696369656e7446756e647300000000000000000000000000000081525060200191505060405180910390fd5b611964843461251e90919063ffffffff16565b9150600f8681548110151561197557fe5b906000526020600020015483111515156119f7576040517f08c379a00000000000000000000000000000000000000000000000000000000081526004018080602001828103825260078152602001807f736f6c644f75740000000000000000000000000000000000000000000000000081525060200191505060405180910390fd5b611a0082612537565b611a0984612581565b600090505b848160ff161015611a9557611a2333876125ed565b600185038160ff161415611a88573373ffffffffffffffffffffffffffffffffffffffff167f8ae0530c584300c22d38bee41c34c6d4e2806c50a2a2519cf44fba873c3de1d98688604051808381526020018281526020019250505060405180910390a25b8080600101915050611a0e565b505050505050565b6000601082815481101515611aae57fe5b90600052602060002001549050919050565b6000600d60149054906101000a900460ff16905090565b6000600460008473ffffffffffffffffffffffffffffffffffffffff1673ffffffffffffffffffffffffffffffffffffffff16815260200190815260200160002060008373ffffffffffffffffffffffffffffffffffffffff1673ffffffffffffffffffffffffffffffffffffffff16815260200190815260200160002060009054906101000a900460ff16905092915050565b600080600c60009054906101000a900473ffffffffffffffffffffffffffffffffffffffff1673ffffffffffffffffffffffffffffffffffffffff163373ffffffffffffffffffffffffffffffffffffffff16141515611bca57600080fd5b600084111515611c42576040517f08c379a000000000000000000000000000000000000000000000000000000000815260040180806020018281038252600f8152602001807f696e76616c69645175616e74697479000000000000000000000000000000000081525060200191505060405180910390fd5b600e5485101515611cbb576040517f08c379a00000000000000000000000000000000000000000000000000000000081526004018080602001828103825260108152602001807f696e76616c6964546f6b656e547970650000000000000000000000000000000081525060200191505060405180910390fd5b836011600087815260200190815260200160002054019150600f85815481101515611ce257fe5b90600052602060002001548211151515611d64576040517f08c379a00000000000000000000000000000000000000000000000000000000081526004018080602001828103825260078152602001807f736f6c644f75740000000000000000000000000000000000000000000000000081525060200191505060405180910390fd5b600090505b838160ff161015611e0d57611d7e83866125ed565b600184038160ff161415611e00577fb806d0ab6ac6bac88bb8daa63e2d070b447f087b6e9e5587f218d3179bea7e04848685604051808481526020018381526020018273ffffffffffffffffffffffffffffffffffffffff1673ffffffffffffffffffffffffffffffffffffffff168152602001935050505060405180910390a15b8080600101915050611d69565b5050505050565b600060116000838152602001908152602001600020549050919050565b600c60009054906101000a900473ffffffffffffffffffffffffffffffffffffffff1673ffffffffffffffffffffffffffffffffffffffff163373ffffffffffffffffffffffffffffffffffffffff16141515611e8d57600080fd5b611e9681612646565b50565b600080611ea5836111d6565b90508073ffffffffffffffffffffffffffffffffffffffff168473ffffffffffffffffffffffffffffffffffffffff161480611f1457508373ffffffffffffffffffffffffffffffffffffffff16611efc84610d32565b73ffffffffffffffffffffffffffffffffffffffff16145b80611f255750611f248185611ad7565b5b91505092915050565b8173ffffffffffffffffffffffffffffffffffffffff16611f4e826111d6565b73ffffffffffffffffffffffffffffffffffffffff16141515611f7057600080fd5b600073ffffffffffffffffffffffffffffffffffffffff166002600083815260200190815260200160002060009054906101000a900473ffffffffffffffffffffffffffffffffffffffff1673ffffffffffffffffffffffffffffffffffffffff1614151561202d5760006002600083815260200190815260200160002060006101000a81548173ffffffffffffffffffffffffffffffffffffffff021916908373ffffffffffffffffffffffffffffffffffffffff1602179055505b5050565b60008060006120408585612742565b600860008581526020019081526020016000205492506120ac6001600760008873ffffffffffffffffffffffffffffffffffffffff1673ffffffffffffffffffffffffffffffffffffffff1681526020019081526020016000208054905061251e90919063ffffffff16565b9150600760008673ffffffffffffffffffffffffffffffffffffffff1673ffffffffffffffffffffffffffffffffffffffff168152602001908152602001600020828154811015156120fa57fe5b9060005260206000200154905080600760008773ffffffffffffffffffffffffffffffffffffffff1673ffffffffffffffffffffffffffffffffffffffff1681526020019081526020016000208481548110151561215457fe5b9060005260206000200181905550600760008673ffffffffffffffffffffffffffffffffffffffff1673ffffffffffffffffffffffffffffffffffffffff1681526020019081526020016000208054809190600190036121b49190612af7565b50600060086000868152602001908152602001600020819055508260086000838152602001908152602001600020819055505050505050565b60006121f98383612871565b600760008473ffffffffffffffffffffffffffffffffffffffff1673ffffffffffffffffffffffffffffffffffffffff168152602001908152602001600020805490509050600760008473ffffffffffffffffffffffffffffffffffffffff1673ffffffffffffffffffffffffffffffffffffffff168152602001908152602001600020829080600181540180825580915050906001820390600052602060002001600090919290919091505550806008600084815260200190815260200160002081905550505050565b6000806122e68573ffffffffffffffffffffffffffffffffffffffff166129cb565b15156122f557600191506124dd565b8473ffffffffffffffffffffffffffffffffffffffff1663150b7a02338887876040518563ffffffff167c0100000000000000000000000000000000000000000000000000000000028152600401808573ffffffffffffffffffffffffffffffffffffffff1673ffffffffffffffffffffffffffffffffffffffff1681526020018473ffffffffffffffffffffffffffffffffffffffff1673ffffffffffffffffffffffffffffffffffffffff16815260200183815260200180602001828103825283818151815260200191508051906020019080838360005b838110156123ea5780820151818401526020810190506123cf565b50505050905090810190601f1680156124175780820380516001836020036101000a031916815260200191505b5095505050505050602060405180830381600087803b15801561243957600080fd5b505af115801561244d573d6000803e3d6000fd5b505050506040513d602081101561246357600080fd5b8101908080519060200190929190505050905063150b7a027c0100000000000000000000000000000000000000000000000000000000027bffffffffffffffffffffffffffffffffffffffffffffffffffffffff1916817bffffffffffffffffffffffffffffffffffffffffffffffffffffffff19161491505b50949350505050565b6000808314156124f95760009050612518565b818302905081838281151561250a57fe5b0414151561251457fe5b8090505b92915050565b600082821115151561252c57fe5b818303905092915050565b3373ffffffffffffffffffffffffffffffffffffffff166108fc829081150290604051600060405180830381858888f1935050505015801561257d573d6000803e3d6000fd5b5050565b600d60009054906101000a900473ffffffffffffffffffffffffffffffffffffffff1673ffffffffffffffffffffffffffffffffffffffff166108fc829081150290604051600060405180830381858888f193505050501580156125e9573d6000803e3d6000fd5b5050565b60006011600083815260200190815260200160002060008154809291906001019190505550600161261c610eb4565b01905081601260008381526020019081526020016000208190555061264183826129de565b505050565b600073ffffffffffffffffffffffffffffffffffffffff168173ffffffffffffffffffffffffffffffffffffffff161415151561268257600080fd5b8073ffffffffffffffffffffffffffffffffffffffff16600c60009054906101000a900473ffffffffffffffffffffffffffffffffffffffff1673ffffffffffffffffffffffffffffffffffffffff167f8be0079c531659141344cd1fd0a4f28419497f9722a3daafe3b4186f6b6457e060405160405180910390a380600c60006101000a81548173ffffffffffffffffffffffffffffffffffffffff021916908373ffffffffffffffffffffffffffffffffffffffff16021790555050565b8173ffffffffffffffffffffffffffffffffffffffff16612762826111d6565b73ffffffffffffffffffffffffffffffffffffffff1614151561278457600080fd5b6127d76001600360008573ffffffffffffffffffffffffffffffffffffffff1673ffffffffffffffffffffffffffffffffffffffff1681526020019081526020016000205461251e90919063ffffffff16565b600360008473ffffffffffffffffffffffffffffffffffffffff1673ffffffffffffffffffffffffffffffffffffffff1681526020019081526020016000208190555060006001600083815260200190815260200160002060006101000a81548173ffffffffffffffffffffffffffffffffffffffff021916908373ffffffffffffffffffffffffffffffffffffffff1602179055505050565b600073ffffffffffffffffffffffffffffffffffffffff166001600083815260200190815260200160002060009054906101000a900473ffffffffffffffffffffffffffffffffffffffff1673ffffffffffffffffffffffffffffffffffffffff161415156128df57600080fd5b816001600083815260200190815260200160002060006101000a81548173ffffffffffffffffffffffffffffffffffffffff021916908373ffffffffffffffffffffffffffffffffffffffff1602179055506129846001600360008573ffffffffffffffffffffffffffffffffffffffff1673ffffffffffffffffffffffffffffffffffffffff16815260200190815260200160002054612a3590919063ffffffff16565b600360008473ffffffffffffffffffffffffffffffffffffffff1673ffffffffffffffffffffffffffffffffffffffff168152602001908152602001600020819055505050565b600080823b905060008111915050919050565b6129e88282612a51565b600980549050600a60008381526020019081526020016000208190555060098190806001815401808255809150509060018203906000526020600020016000909192909190915055505050565b60008183019050828110151515612a4857fe5b80905092915050565b600073ffffffffffffffffffffffffffffffffffffffff168273ffffffffffffffffffffffffffffffffffffffff1614151515612a8d57600080fd5b612a9782826121ed565b808273ffffffffffffffffffffffffffffffffffffffff16600073ffffffffffffffffffffffffffffffffffffffff167fddf252ad1be2c89b69c2b068fc378daa952ba7f163c4a11628f55a4df523b3ef60405160405180910390a45050565b815481835581811115612b1e57818360005260206000209182019101612b1d9190612b23565b5b505050565b612b4591905b80821115612b41576000816000905550600101612b29565b5090565b905600a165627a7a723058205c06f3cf428c18115b1535d66c019b83374ce2642019979c00e09eccf8c7baf80029",
  "source": "pragma solidity ^0.4.24;\n\nimport 'zeppelin-solidity/contracts/token/ERC721/ERC721Token.sol';    \nimport 'zeppelin-solidity/contracts/ownership/Ownable.sol';\n\n\n/*\nTO-DO:\n- Use SafeMath -\n- Use Ownable -\n- Send funds to a defined address (maybe the owner's) -\n- Add events -\n- Implement Token URIs (super.setTokenUri(_tokenId, _tokenUri))\n*/\n\ncontract ticketsToken is ERC721Token, Ownable {\n\n    using SafeMath for uint256;\n    //Contract owner\n    address private owner;\n    //Maximum quantity of tokens per sale\n    uint8 private maxPerSale;\n    // Maximum quantity of token types\n    uint256 private maxTokenTypes;\n    // Maximum quantity of tokens to be minted per each tokenType\n    uint256[] private caps;              \n    // Rate in Wei per each tokenType\n    uint256[] private rates;    \n    //Counter of minted tokens for each tokenType\n    mapping (uint256 => uint256) private totals;    \n    //mapping of token type for each token ID\n    mapping (uint256 => uint256) types;\n\n    //saleToken event\n    event saleTokenSuccess (\n        uint256 quantity,\n        uint256 tokenType,\n        address indexed owner\n    );\n\n    //courtesyToken event\n    event courtesyTokenSuccess (\n        uint256 quantity,\n        uint256 tokenType,\n        address owner\n    );\n\n    constructor(string _name, string _symbol, uint256[] _caps, uint256[] _rates, uint8 _maxPerSale) public \n        ERC721Token(_name, _symbol) { \n            //revert if caps or rates are not correctly defined\n            require(_caps.length == _rates.length, 'invalidCapsRatesLength');\n            //revert if _maxPerSale is 0\n            require(_maxPerSale > 0, 'invalidMaxPerSale');\n            for (uint256 i = 0; i < _caps.length; i++ ){\n                //revert if either cap or rate is 0 for any type of token\n                require(_caps[i] > 0 && _rates[i] > 0, 'invalidCapRate');\n            }\n            maxTokenTypes = _caps.length;\n            caps = _caps;\n            rates = _rates;\n            maxPerSale = _maxPerSale;\n            owner = msg.sender;\n        }\n\n    //Mint & send _quantity ERC721 tokens to msg.sender if conditions are met\n    function saleToken(uint256 _tokenType, uint256 _quantity) public payable {\n        //revert if _quantity is 0\n        require(_quantity > 0, 'invalidQuantity');\n        //revert if _tokenType is invalid\n        require(_tokenType < maxTokenTypes, 'invalidTokenType');\n        //revert if _quantity is more than maximum allowed per sale\n        require(_quantity <= maxPerSale, 'quantityOverMax');\n        uint256 amountToPay = _quantity.mul(rates[_tokenType]);\n        uint256 supplyIfMinted = totals[_tokenType] + _quantity;\n        //revert if msg.value is not enough for purchase\n        require(msg.value >= amountToPay, 'insufficientFunds');\n        uint256 toRefund = msg.value.sub(amountToPay);\n        //revert if cap is reached\n        require( supplyIfMinted <= caps[_tokenType], 'soldOut');\n        //mint all tokens if all conditions are met\n        refundFunds(toRefund);\n        transferFundsToOwner(amountToPay);\n        for (uint8 i = 0; i < _quantity; i++) {\n            mintUniqueToken(msg.sender, _tokenType);\n            if (i == _quantity - 1) {\n                emit saleTokenSuccess(_quantity, _tokenType, msg.sender);\n            }\n        }\n\n    }\n\n    function refundFunds(uint256 _toRefund) private {\n        msg.sender.transfer(_toRefund);\n    }\n\n    function transferFundsToOwner(uint256 _amountToPay) private {\n        owner.transfer(_amountToPay);\n    }\n\n    //mint & send _quantity ERC721 tokens to _to as ordered by the owner if conditions are met\n    function courtesyToken(uint256 _tokenType, uint256 _quantity, address _to) public onlyOwner {\n        //revert if _quantity is 0\n        require(_quantity > 0, 'invalidQuantity');\n        //revert if _tokenType is invalid\n        require(_tokenType < maxTokenTypes, 'invalidTokenType');        \n        uint256 supplyIfMinted = totals[_tokenType] + _quantity;\n        //revert if cap is reached\n        require( supplyIfMinted <= caps[_tokenType], 'soldOut');\n        //mint all tokens if all conditions are met\n        for (uint8 i = 0; i < _quantity; i++) {\n            mintUniqueToken(_to, _tokenType);\n            if (i == _quantity - 1) {\n                emit courtesyTokenSuccess(_quantity, _tokenType, _to);\n            }\n        }\n    }\n\n    function mintUniqueToken(address _to, uint256 _tokenType) private { \n        totals[_tokenType]++;\n        uint256 _tokenid = super.totalSupply() + 1;\n        types[_tokenid] = _tokenType;\n        super._mint(_to, _tokenid);\n    }\n\n    function checkRates(uint256 _tokenType) constant returns (uint256) {\n        return rates[_tokenType];\n    }\n\n    function checkMaxPerSale() constant returns (uint8) {\n        return maxPerSale;\n    }\n\n    function checkMaxTokenTypes() constant returns (uint256) {\n        return maxTokenTypes;\n    }\n\n    function checkTokenType(uint256 _tokenId) constant returns (uint256) {\n        return types[_tokenId];\n    }\n\n    function checkOwnedTokens(address _address) constant returns (uint256[]) {\n        return ownedTokens[_address];\n    }\n\n    function checkCaps(uint256 _tokenType) constant returns (uint256) {\n        return caps[_tokenType];\n    } \n\n    function checkMinted(uint256 _tokenType) constant returns (uint256) {\n        return totals[_tokenType];\n    }\n\n}",
  "sourcePath": "/Users/ochoacabriles/Desktop/Projects/Solidity/ticketSystem/back-end/contracts/ticketsToken.sol",
  "compiler": {
    "name": "solc",
    "version": "0.4.24+commit.e67f0147.Emscripten.clang"
  },
  "schemaVersion": "2.0.0",
  "updatedAt": "2018-10-05T21:15:35.957Z"
}